:020000040800F2
:1000000040080020C95D000891050008930500081C
:10001000970500089B0500089F05000800000000E8
:10002000000000000000000000000000A305000820
:10003000A505000800000000A7050008A9050008A4
:10004000E35D0008E35D0008E35D0008E35D000890
:10005000E35D0008E35D0008E35D0008E35D000880
:10006000E35D0008E35D0008E35D0008E35D000870
:10007000E35D0008E35D0008E35D0008E35D000860
:10008000E35D0008E35D0008E35D0008E35D000850
:10009000E35D0008E35D0008E35D0008E35D000840
:1000A000E35D0008E35D0008E35D0008E35D000830
:1000B000E35D0008255A0008E35D0008E35D0008E1
:1000C000E35D0008E35D0008E35D0008E35D000810
:1000D000E35D00083D5D0008E35D0008E35D0008A6
:1000E000E35D0008E35D0008E35D0008E35D0008F0
:1000F000E35D0008E35D0008E35D0008E35D0008E0
:10010000E35D0008E35D0008E35D0008E35D0008CF
:10011000E35D0008E35D0008E35D0008E35D0008BF
:10012000E35D0008E35D0008E35D0008E35D0008AF
:1001300000F002F800F090F80AA090E8000C824469
:100140008344AAF10107DA4501D100F085F8AFF246
:10015000090EBAE80F0013F0010F18BFFB1A43F0A5
:1001600001031847DC2D0100FC2D0100103A24BFCB
:1001700078C878C1FAD8520724BF30C830C144BF0C
:1001800004680C607047000000230024002500264E
:10019000103A28BF78C1FBD8520728BF30C148BFEA
:1001A0000B6070476E2908F0B982702908F0118140
:1001B000662909F08087652909F07D87672909F09C
:1001C0007A876129AFF3008003681B0A28BF41F0DA
:1001D0008001692908F08280642908F07F807529F0
:1001E00008F07C806F2908F09F83782908F0DD8073
:1001F000E92908F03983E42908F03683F52908F065
:100200003383EF2908F09C83F82908F0DC80036829
:10021000DB0928BF41F08001632908F0BA82732905
:1002200008F0BF82E32908F0F185F32908F0F6858C
:10023000002070471FB508F047FE04000020002191
:1002400009F0E6FA401C60600020002109F0CAFABB
:10025000E0601FBD10B510BD08F008FE1146FFF7A5
:10026000E9FF00F019F808F0E1FE03B4FFF7F2FF30
:1002700003BC05F005FD000010B505F08DFA05F092
:100280008FFC05F0F7FC01F01BF805F0FFFA05F014
:1002900057FA05F099FB10BD1CB50024FFF7ECFFE1
:1002A00040F2CF10B149088000231A46A5216420EE
:1002B00004F069FE00230122A521C42004F063FE9E
:1002C0000023022240F22511642004F05CFE00238A
:1002D000032240F22511C42004F055FE00230A2217
:1002E000A5214FF4B47004F04EFE00230A2240F220
:1002F00025114FF4B47004F046FE00230122A5211D
:100300004FF4947004F0E7FF00231A4640F22511E1
:10031000C81C04F0E0FF00BF0BE0322204FB02F136
:1003200001F1960000232246382105F0E6F8601C12
:10033000C4B20A2CF1DB01218D4807F0B5FC322054
:1003400005F06BFC10E18B480068002844DB89480D
:1003500000680A2817DA884800884FF48B7340F247
:100360002222962100904FF4CD7004F026FB8148A4
:10037000006882A180235A00CDE90010962140F246
:10038000232005F045F87B48006863280CDD794898
:1003900000687AA180235A00CDE9001096214FF41D
:1003A000CD7005F035F817E0734800884FF48C7372
:1003B0004FF4EC72962100904FF4CD7004F0FDFAEA
:1003C0006C4800686DA180235A00CDE90010962189
:1003D00040F2D91005F01CF86648006800284BDA96
:1003E000002296214FF4CD7004F0EDFE61480068C4
:1003F00010F1630F0BDA5F48006860A180235A0098
:10040000CDE9001096214FF4EF7005F001F859483E
:10041000006810F10A0F18DD574800884FF48B73FD
:1004200040F25A22962100904FF4ED7004F0C5FA84
:100430005048006851A180235A00CDE90010962150
:1004400040F25B2004F0E4FF16E04B48008840F2E5
:100450001A234FF4EC7296210090901C04F0ADFA30
:100460004448006845A180235A00CDE90010962138
:1004700040F2192004F0CCFF4148007848BB4148C5
:10048000007830B33C48008840F267134FF448725C
:1004900040F2251100904FF4CD7004F08EFA002345
:1004A000082240F225114FF4C67004F06CFD0023C1
:1004B000092240F225114FF4F87004F064FD4FF466
:1004C0008041314806F021F94FF480512E4806F062
:1004D0001EF92B48007801281CD12A480078C8B1A1
:1004E0000123062240F225114FF4C67004F04BFDA3
:1004F0000023072240F225114FF4F87004F043FD69
:100500004FF48051204806F000F94FF480411E4816
:1005100006F0FDF81D48007830B31748008840F217
:1005200067134FF4487240F2251100904FF4CD70DC
:1005300004F043FA0023042240F225114FF4C67060
:1005400004F021FD0023052240F225114FF4F8703C
:1005500004F019FD4FF480410B4806F0D6F84FF433
:100560008051094806F0D3F8EDE6000014000020A1
:100570000004004020000020160000202564000038
:100580003000002035000020001C01403400002015
:10059000704700BFFEE700BFFEE700BFFEE700BFF9
:1005A000FEE7704770477047704700000CB50020A9
:1005B000019000906C48006840F480306A490860FF
:1005C00000BF6948006800F4003000900198401CAA
:1005D0000190009818B90198B0F5A06FF1D1624868
:1005E000006800F4003010B10120009001E000200C
:1005F00000900098012843D15C48006840F010004A
:100600005A4908600846006820F003000860084660
:10061000006840F002000860534840685249486052
:100620000846406848600846406840F4806048607A
:100630000846406820F47C1048600846406840F452
:10064000E81048600846006840F08070086000BF0D
:100650004548006800F000700028F9D04248406822
:1006600020F00300404948600846406840F002001E
:10067000486000BF3C48406800F00C000828F9D1F1
:100680000CBD10B5FFF792FF10BD10B536480068DD
:1006900040F0010034490860084640683449084089
:1006A0003149486008460068324908402E490860D0
:1006B0000846006820F4802008600846406820F45E
:1006C000FE0048604FF41F008860FFF7DAFF4FF02C
:1006D00000602949086010BD10B5002100200022EB
:1006E000214B5B6803F00C0121B1042906D00829D5
:1006F00028D107E0214B224C236027E01F4B204CE0
:10070000236023E0184B5B6803F47010164B5B68A2
:1007100003F48032022303EB904022B9194B434388
:10072000174C23600DE0104B5B6803F4003323B1DA
:10073000144B4343124C236003E0104B4343104CD3
:10074000236003E00D4B0E4C236000BF00BF064B3F
:100750005B68C3F303130C4CE15C094B1B68CB4093
:10076000074C236010BD0000001002400020024032
:100770000000FFF8FFFFF6FE08ED00E000127A002F
:100780000000002000093D0004000020FE49088010
:100790007047FD49891C08807047FB48801C008811
:1007A0007047F94A1080921C1180704710B50446BA
:1007B0002046FFF7EBFF052005F00BFAFFF7EDFFF2
:1007C00010BDF2480089F04908807047EE49891C45
:1007D0000880704730B5014601F01F04C1F345138E
:1007E000CA0AE50205EB43151544A8B230BD00BFA7
:1007F0000100A0F10102D0B2FAD1704710B5034652
:100800000C46E248808849F24131884205D0DF48F1
:10081000808845F21031884214D1DC494889FFF7BD
:10082000B5FF1812FFF7B5FFD8B2FFF7B2FFD749EF
:100830008889FFF7ABFF2012FFF7ABFFE0B2FFF7AD
:10084000A8FF5DE0D148808846F6040188421DD1AA
:10085000CE488079012804D1CC480088401EC01AB7
:1008600083B2CA494889FFF791FF1812FFF791FF39
:10087000D8B2FFF78EFFC5498889FFF787FF20129E
:10088000FFF787FFE0B2FFF784FF39E0BF488088B9
:1008900045F21051884220D1BC494889FFF776FFC4
:1008A0001812FFF776FFB9494989491C88B2FFF74A
:1008B0006DFFD8B2FFF76DFFB4498889FFF766FF77
:1008C0002012FFF766FFB1498989491C88B2FFF7FA
:1008D0005DFFE0B2FFF75DFF12E0AC4880790128D0
:1008E00004D1AA480088401EC01A83B2A74948898B
:1008F0001946FFF756FFA54988892146FFF751FFA2
:1009000010BD2DE9F04105460E4600240027A04603
:100910009E480088A84203DD9C484088B04202DC23
:100920000020BDE8F08131462846FFF767FF974871
:10093000808849F2413188420BD09448808846F63D
:100940000401884205D09148808845F210318842E0
:1009500003D12E20FFF71AFF0DE08C48808845F266
:100960001051884204D14FF43850FFF70FFF02E0D6
:100970002220FFF70BFF8548808849F2203188420A
:1009800002D10220FFF733FF7F48801C008800B1AE
:1009900000240220FFF72BFF7B48801C04887B4843
:1009A000808849F2413188420BD07848808845F2EE
:1009B0001031884205D07548808845F21051884230
:1009C0000CD10220FFF713FF6F48801CB0F80080A5
:1009D000E7B24FF6FF7000EA072708E06B4880880F
:1009E00046F60401884202D16748801C04886748A3
:1009F000808849F22531884216D06448808844F2C4
:100A00003551884210D061488088091F88420BD038
:100A10005E48808848F68911884205D05B48808806
:100A20004BF20551884201D120467AE75748808829
:100A300049F2413188420BD05448808845F2103148
:100A4000884205D05148808845F21051884207D12C
:100A5000E012C002B91240EA411040EAE82060E723
:100A60002046FFF7B7FE5CE700B54848808849F2AA
:100A7000413188420BD04548808846F604018842BF
:100A800005D04248808845F21031884203D12920A0
:100A9000FFF77CFE0FE03D48808845F21051884208
:100AA00004D14FF42450FFF771FE04E040F27311BB
:100AB0000720FFF776FE00BD00B53448808849F274
:100AC000413188420BD03148808846F60401884283
:100AD00005D02E48808845F21031884203D1282065
:100AE000FFF754FE0EE02948808845F210518842F5
:100AF00004D14FF42050FFF749FE03E00021072006
:100B0000FFF74FFE00BD70B50446002300261F48C6
:100B1000807901281ED11D48808846F6040188424C
:100B200018D0082C15D2DFE804F00406080A0C0ED1
:100B3000101206240DE007240BE0042409E005242C
:100B400007E0012405E0002403E0032401E002247F
:100B500000BF00BF0D48808849F24131884211D062
:100B60000A48808846F6040188420BD007488088EE
:100B700045F21031884205D00448808845F2105172
:100B800088427CD1082C03E0FE07006C580000204E
:100B90001CD2DFE804F00406090C0F12151800BF80
:100BA00014E043F0800311E043F040030EE043F013
:100BB000C0030BE043F0200308E043F0600305E0CE
:100BC00043F0A00302E043F0E00300BF00BFFC4895
:100BD000808845F21051884202D14FF4585600E007
:100BE0003626F748808845F21031884207D0F4480D
:100BF000808845F21051884201D043F00803F04844
:100C0000808846F60401884201D143F00203194668
:100C10003046FFF7C6FD03F0200018B9E848807998
:100C200001280DD1E6480088E5494988884214DA50
:100C3000E34805884088E2490880084645800CE082
:100C4000DF480088DE494988884206DDDC4805889F
:100C50004088DB49088008464580D948808845F2AD
:100C60001051884254D1D6494889FFF78FFD0020A2
:100C7000FFF78FFDD2494989491C88B200E076E030
:100C8000FFF784FD0020FFF784FDCD494989891CC9
:100C900088B2FFF77BFDCA490988491EC1F30F20BE
:100CA000FFF777FDC6494989C91C88B2FFF76EFD79
:100CB000C3490978491EC8B2FFF76BFDC04988894E
:100CC000FFF764FD0020FFF764FDBD498989491CD9
:100CD00088B2FFF75BFD0020FFF75BFDB84989890B
:100CE000891C88B2FFF752FDB5494988491EC1F3F6
:100CF0000F20FFF74EFDB2498989C91C88B2FFF762
:100D000045FDAF498978491EC8B2FFF742FD60E052
:100D1000AB494889FFF73AFD0020FFF73AFD002074
:100D2000FFF737FDA6490988491EC1F30F20FFF7D9
:100D300030FDA3490978491EC8B2FFF72AFDA04932
:100D40008889FFF723FD0020FFF723FD0020FFF730
:100D500020FD9B494988491EC1F30F20FFF719FD6B
:100D600097498978491EC8B2FFF713FD31E0082C76
:100D70001CD2DFE804F004070A0D0F12151843F027
:100D8000300313E043F0100310E043F020030DE0C4
:100D900000BF0BE043F0380308E043F0280305E010
:100DA00043F0180302E043F0080300BF00BF84488B
:100DB000808848F68911884204D1112646F2400005
:100DC000034302E0032643F4805319463046FFF7FD
:100DD000E8FC70BD30B504460D4629462046FFF7B5
:100DE0000DFDFFF7EEFC774800887749088030BD9D
:100DF00030B503460C4615467148808849F24131AA
:100E0000884205D06E48808845F21031884214D15E
:100E10006B494889FFF7BAFC1812FFF7BAFCD8B241
:100E2000FFF7B7FC66498889FFF7B0FC2012FFF78F
:100E3000B0FCE0B2FFF7ADFC5DE06148808845F2B0
:100E40001051884220D15E494889FFF79FFC181253
:100E5000FFF79FFC5A494989491C88B2FFF796FC65
:100E6000D8B2FFF796FC56498889FFF78FFC20120D
:100E7000FFF78FFC52498989491C88B2FFF786FC2D
:100E8000E0B2FFF786FC36E04D48808846F6040164
:100E900088421DD14A488079012804D148480088F9
:100EA000401EC01A83B246494889FFF76FFC1812EA
:100EB000FFF76FFCD8B2FFF76CFC41498889FFF758
:100EC00065FC2012FFF765FCE0B2FFF762FC12E060
:100ED0003B488079012804D139480088401EC01A57
:100EE00083B2374948891946FFF75BFC3449888942
:100EF0002146FFF756FC324800893349891E088095
:100F0000881C058030BD10B50446002C66D12C49E4
:100F10008871F02008804FF4A070488008468088CF
:100F200049F2413188420BD02548808846F60401B9
:100F3000884205D02248808845F2103188421AD173
:100F40002C201F4908812A2048812B2088810846AF
:100F5000808846F60401884205D01948808845F209
:100F60001031884206D14FF4A070154908804FF423
:100F7000F07048809BE01248808848F689118842CA
:100F800007D122200E4908814E2048814F208881B8
:100F90008DE00B48808845F21051884216D14FF4FD
:100FA0003050074908814FF4285048814FF42C50A5
:100FB00088814FF4F07008804FF44870488076E0E4
:100FC00058000020140000200008006C2220FE4978
:100FD0000881202048812120888168E00120FA4989
:100FE00088714FF4A0700880F020488008468088FF
:100FF00049F24131884205D0F348808845F21031EA
:10100000884207D12C20F04908812A2048812B20D2
:10101000888139E0EC48808846F60401884207D18F
:101020002C20E94908812B2048812A2088812BE047
:10103000E548808848F68911884207D12220E24994
:1010400008814F2048814E2088811DE0DE4880883D
:1010500045F21051884210D14FF43050DA490881DE
:101060004FF4285048814FF42C5088814FF4487039
:1010700008804FF4F070488006E02220D2490881B1
:101080002120488120208881CF48808846F60401AD
:10109000884205D0CC48808845F21031884206D17C
:1010A0004FF4F070C84908804FF4A07048800020C9
:1010B000FFF729FD10BD2DE9FF4F04460D461646EA
:1010C0001F46A019401E86B2E819401E87B2BE48CE
:1010D000808849F2413188420BD0BB48808845F274
:1010E0001031884205D0B848808846F6040188420D
:1010F00020D1B5494889FFF749FB2012FFF749FB8A
:10110000E0B2FFF746FB3012FFF743FBF0B2FFF708
:1011100040FBAD498889FFF739FB2812FFF739FBFF
:10112000E8B2FFF736FB3812FFF733FBF8B2FFF7F0
:1011300030FB91E0A448808845F21051884244D1A8
:10114000A1494889FFF722FB2012FFF722FB9E49A5
:101150004989491C88B2FFF719FBE0B2FFF719FB78
:1011600099494989891C88B2FFF710FB3012FFF7B3
:1011700010FB95494989C91C88B2FFF707FBF0B2FB
:10118000FFF707FB90498889FFF700FB2812FFF75C
:1011900000FB8D498989491C88B2FFF7F7FAE8B24C
:1011A000FFF7F7FA88498989891C88B2FFF7EEFAB8
:1011B0003812FFF7EEFA84498989C91C88B2FFF713
:1011C000E5FAF8B2FFF7E5FA46E07F4880790128B2
:1011D0000ED1A846B9467C480088801B401E80B2CC
:1011E000019079480088001B401E80B2009003E007
:1011F000A046B146019500977348808848F689114A
:1012000088420DD14FF0440A4FF0440B48EA0920C0
:101210001FFA80F8C146452003904620029007E05F
:101220004FF0500A4FF0510B522003905320029080
:1012300041465046FFF7B5FA49465846FFF7B1FA1E
:1012400001990398FFF7ADFA00990298FFF7A9FA00
:1012500029462046FFF7D2FABDE8FF8F70B5044655
:10126000002659480588408845435748808846F6F7
:101270000401884216D154488079012812D10020F7
:10128000514988712A2048812B20888100210846F5
:10129000FFF7B4FA01204C4988712B2048812A209D
:1012A000888103E000210846FFF7A8FAFFF789FAD2
:1012B000002602E045480480761CAE42FAD370BD99
:1012C00000B59FB00121080205F021FC012140F288
:1012D000691005F029FC0120ADF8780010208DF888
:1012E0007B0003208DF87A001EA9394805F060F9CB
:1012F0004CF23370ADF8780018208DF87B00032095
:101300008DF87A001EA9334805F052F94FF6807027
:10131000ADF8780018208DF87B0003208DF87A0056
:101320001EA92D4805F044F941F20100ADF87800FE
:1013300018208DF87B0003208DF87A001EA927481D
:1013400005F036F901200890002009900F200A903E
:1013500000200B900C900D900E90019002900320B5
:1013600003900020049005900690079006200F90AF
:1013700000201090119010201290002013901590D2
:101380001490169017904FF48050189000201990E8
:101390004FF480401A9000201B9008A81C9001A8D0
:1013A0001D900FA804F0EAFD0121062004F04EFF75
:1013B000322004F032FC01210020FFF7F2F9322044
:1013C00004F02BFC00200BE0580000200008006C0B
:1013D000000C0140001401400018014000200140B1
:1013E000FFF7E4F9FE49888008468088FF280ADB79
:1013F000084680884FF6FF71884204D0F8488088FC
:10140000B0F5134F7ED1D320FFF7C0F9FFF7C5F930
:10141000FFF7C3F9FFF7C1F9F149888008468088D2
:101420004FF6FF7101EA0020ED498880FFF7B5F91A
:10143000EB4989880843EA4988800846808849F250
:10144000413188426CD0BF20FFF7A0F9FFF7A5F922
:10145000FFF7A3F9FFF7A1F9FFF79FF9E0498880AB
:10146000084680884FF6FF7101EA0020DC49888039
:10147000FFF793F9DA4989880843D94988800846F3
:10148000808846F6040188424AD0D420FFF77EF9CE
:10149000FFF783F9FFF781F9FFF77FF9D0498880DB
:1014A000084680884FF6FF7101EA0020CC49888009
:1014B000FFF773F9CA4989880843C94988800846F3
:1014C000808845F2103188422AD04FF45A40FFF705
:1014D0005DF9FFF762F94FF45B40FFF757F9FFF74B
:1014E0005CF9BF498880084680884FF6FF7101EAA1
:1014F0000020BB4988804FF45C40FFF747F9FFF7B5
:101500004CF900E00CE0B64989880843B44988806A
:1015100008468088B0F5004F02D145F2105088800F
:10152000AF48808849F2413188427CD1CF20FFF713
:101530002DF90020FFF72DF9C120FFF72AF93020FF
:10154000FFF727F9ED20FFF721F96420FFF721F9D4
:101550000320FFF71EF91220FFF71BF98120FFF788
:1015600018F9E820FFF712F98520FFF712F910208B
:10157000FFF70FF97A20FFF70CF9CB20FFF706F9F8
:101580003920FFF706F92C20FFF703F90020FFF7B9
:1015900000F93420FFF7FDF80220FFF7FAF8F720F2
:1015A000FFF7F4F82020FFF7F4F8EA20FFF7EEF851
:1015B0000020FFF7EEF80020FFF7EBF8C020FFF760
:1015C000E5F81B20FFF7E5F8C120FFF7DFF8012061
:1015D000FFF7DFF8C520FFF7D9F83020FFF7D9F87B
:1015E0003020FFF7D6F8C720FFF7D0F8B720FFF775
:1015F000D0F83620FFF7CAF84820FFF7CAF83A209B
:10160000FFF7C4F85520FFF7C4F8B120FFF7BEF884
:101610000020FFF7BEF81A20FFF7BBF8B620FFF74F
:10162000B5F80A2000E099E0FFF7B3F8A220FFF731
:10163000B0F8F220FFF7AAF80020FFF7AAF826205A
:10164000FFF7A4F80120FFF7A4F8E020FFF79EF8C9
:101650000F20FFF79EF82A20FFF79BF82820FFF7BE
:1016600098F80820FFF795F80E20FFF792F8082069
:10167000FFF78FF85420FFF78CF8A920FFF789F8BF
:101680004320FFF786F80A20FFF783F80F20FFF7C3
:1016900080F80020FFF77DF80020FFF77AF800209F
:1016A000FFF777F80020FFF774F8E120FFF76EF8F6
:1016B0000020FFF76EF81520FFF76BF81720FFF7F3
:1016C00068F80720FFF765F81120FFF762F8062099
:1016D000FFF75FF82B20FFF75CF85620FFF759F86B
:1016E0003C20FFF756F80520FFF753F81020FFF7CE
:1016F00050F80F20FFF74DF83F20FFF74AF83F2042
:10170000FFF747F80F20FFF744F82B20FFF73EF8CC
:101710000020FFF73EF80020FFF73BF80120FFF71D
:1017200038F83F20FFF735F82A20FFF72FF8002080
:10173000FFF72FF80020FFF72CF80020FFF729F81B
:10174000EF20FFF726F81120FFF720F8782004F0AB
:1017500064FA2920FFF71AF803F023B9204880889B
:1017600046F6040188427DD11120FFF70FF81420BE
:1017700004F053FAD020FFF709F80720FFF709F823
:101780004220FFF706F81D20FFF703F8D120FEF7EF
:10179000FDFF0020FEF7FDFF1A20FEF7FAFF0920EB
:1017A000FEF7F7FFD220FEF7F1FF0120FEF7F1FF71
:1017B0002220FEF7EEFFC020FEF7E8FF1020FEF724
:1017C000E8FF3B20FEF7E5FF0020FEF7E2FF0220E6
:1017D000FEF7DFFF1120FEF7DCFFC52002E000006E
:1017E00058000020FEF7D2FF0320FEF7D2FFC820EA
:1017F000FEF7CCFF0020FEF7CCFF2520FEF7C9FF47
:101800002120FEF7C6FF0520FEF7C3FF0020FEF7EC
:10181000C0FF0A20FEF7BDFF6520FEF7BAFF2520B6
:10182000FEF7B7FF7720FEF7B4FF5020FEF7B1FFB9
:101830000F20FEF7AEFF0020FEF7ABFFF820FEF70B
:10184000A5FF0120FEF7A5FFFE20FEF79FFF002069
:10185000FEF79FFF0220FEF79CFF2020FEF796FF79
:10186000362000E02FE0FEF791FF0820FEF791FF01
:101870003A20FEF78BFF5520FEF78BFF2B20FEF75B
:1018800085FF0020FEF785FF0020FEF782FF012084
:10189000FEF77FFF3F20FEF77CFF2A20FEF776FF52
:1018A0000020FEF776FF0020FEF773FF0120FEF711
:1018B00070FFDF20FEF76DFF782004F0AEF92920DD
:1018C000FEF764FF48E7FE48808845F21031884201
:1018D00040F07C87ED20FEF759FF0120FEF759FF0D
:1018E000FE20FEF756FFEE20FEF750FFDE20FEF74B
:1018F00050FF2120FEF74DFFF120FEF747FF0120AA
:10190000FEF747FFDF20FEF741FF1020FEF741FF03
:10191000C420FEF73BFF8F20FEF73BFFC620FEF7FB
:1019200035FF0020FEF735FFE220FEF732FFE22010
:10193000FEF72FFFE220FEF72CFFBF20FEF726FF69
:10194000AA20FEF726FFB020FEF720FF0D20FEF7AD
:1019500020FF0020FEF71DFF0D20FEF71AFF0020DC
:10196000FEF717FF1120FEF714FF0020FEF711FF0E
:101970001920FEF70EFF0020FEF70BFF2120FEF7D7
:1019800008FF0020FEF705FF2D20FEF702FF0020D4
:10199000FEF7FFFE3D20FEF7FCFE0020FEF7F9FEFD
:1019A0005D20FEF7F6FE0020FEF7F3FE5D20FEF759
:1019B000F0FE0020FEF7EDFEB120FEF7E7FE8020EE
:1019C000FEF7E7FE0020FEF7E4FE8B20FEF7E1FEC7
:1019D0000020FEF7DEFE9620FEF7DBFE0020FEF77D
:1019E000D8FEB220FEF7D2FE0020FEF7D2FE002085
:1019F000FEF7CFFE0220FEF7CCFE0020FEF7C9FE68
:101A00000320FEF7C6FE0020FEF7C3FEB320FEF75C
:101A1000BDFE0020FEF7BDFE0020FEF7BAFE00204E
:101A2000FEF7B7FE0020FEF7B4FE0020FEF7B1FE81
:101A30000020FEF7AEFE0020FEF7ABFE0020FEF712
:101A4000A8FE0020FEF7A5FE0020FEF7A2FE002063
:101A5000FEF79FFE0020FEF79CFE0020FEF799FE99
:101A60000020FEF796FE0020FEF793FE0020FEF712
:101A700090FE0020FEF78DFE0020FEF78AFE00207B
:101A8000FEF787FE0020FEF784FE0020FEF781FEB1
:101A90000020FEF77EFE0020FEF77BFE0020FEF712
:101AA00078FEB420FEF772FE8B20FEF772FE002057
:101AB000FEF76FFE9620FEF76CFE0020FEF769FE33
:101AC000A120FEF766FE0020FEF763FEB520FEF7BC
:101AD0005DFE0220FEF75DFE0020FEF75AFE0320A9
:101AE000FEF757FE0020FEF754FE0420FEF751FEDD
:101AF0000020FEF74EFEB620FEF748FE0020FEF75F
:101B000048FE0020FEF745FEB720FEF73FFE00200E
:101B1000FEF73FFE0020FEF73CFE3F20FEF739FEB9
:101B20000020FEF736FE5E20FEF733FE0020FEF7B3
:101B300030FE6420FEF72DFE0020FEF72AFE8C20EA
:101B4000FEF727FE0020FEF724FEAC20FEF721FE64
:101B50000020FEF71EFEDC20FEF71BFE0020FEF735
:101B600018FE7020FEF715FE0020FEF712FE9020F2
:101B7000FEF70FFE0020FEF70CFEEB20FEF709FE3D
:101B80000020FEF706FEDC20FEF703FE0020FEF735
:101B900000FEB820FEF7FAFD0020FEF7FAFD002057
:101BA000FEF7F7FD0020FEF7F4FD0020FEF7F1FD43
:101BB0000020FEF7EEFD0020FEF7EBFD0020FEF713
:101BC000E8FD0020FEF7E5FDBA20FEF7DFFD24204A
:101BD000FEF7DFFD0020FEF7DCFD0020FEF7D9FD5B
:101BE0000020FEF7D6FDC120FEF7D0FD2020FEF735
:101BF000D0FD0020FEF7CDFD5420FEF7CAFD0020E9
:101C0000FEF7C7FDFF20FEF7C4FD0020FEF7C1FD73
:101C1000C220FEF7BBFD0A20FEF7BBFD0020FEF749
:101C2000B8FD0420FEF7B5FD0020FEF7B2FDC3208D
:101C3000FEF7ACFD3C20FEF7ACFD0020FEF7A9FD51
:101C40003A20FEF7A6FD0020FEF7A3FD3920FEF79F
:101C5000A0FD0020FEF79DFD3720FEF79AFD002035
:101C6000FEF797FD3C20FEF794FD0020FEF791FD66
:101C70003620FEF78EFD0020FEF78BFD3220FEF7AA
:101C800088FD0020FEF785FD2F20FEF782FD002055
:101C9000FEF77FFD2C20FEF77CFD0020FEF779FD8E
:101CA0002920FEF776FD0020FEF773FD2620FEF7C3
:101CB00070FD0020FEF76DFD2420FEF76AFD01E0B7
:101CC000580000200020FEF764FD2420FEF761FD8F
:101CD0000020FEF75EFD2320FEF75BFD0020FEF7EF
:101CE00058FD3C20FEF755FD0020FEF752FD362042
:101CF000FEF74FFD0020FEF74CFD3220FEF749FDB8
:101D00000020FEF746FD2F20FEF743FD0020FEF7E2
:101D100040FD2C20FEF73DFD0020FEF73AFD292076
:101D2000FEF737FD0020FEF734FD2620FEF731FDDB
:101D30000020FEF72EFD2420FEF72BFD0020FEF7ED
:101D400028FD2420FEF725FD0020FEF722FD23209C
:101D5000FEF71FFD0020FEF71CFDC420FEF716FD58
:101D60006220FEF716FD0020FEF713FD0520FEF7AA
:101D700010FD0020FEF70DFD8420FEF70AFD002077
:101D8000FEF707FDF020FEF704FD0020FEF701FD41
:101D90001820FEF7FEFC0020FEF7FBFCA420FEF757
:101DA000F8FC0020FEF7F5FC1820FEF7F2FC0020FE
:101DB000FEF7EFFC5020FEF7ECFC0020FEF7E9FCFC
:101DC0000C20FEF7E6FC0020FEF7E3FC1720FEF7F0
:101DD000E0FC0020FEF7DDFC9520FEF7DAFC002099
:101DE000FEF7D7FCF320FEF7D4FC0020FEF7D1FC71
:101DF000E620FEF7CEFC0020FEF7CBFCC520FEF768
:101E0000C5FC3220FEF7C5FC0020FEF7C2FC4420D2
:101E1000FEF7BFFC0020FEF7BCFC6520FEF7B9FC16
:101E20000020FEF7B6FC7620FEF7B3FC0020FEF79C
:101E3000B0FC8820FEF7ADFC0020FEF7AAFCC6200F
:101E4000FEF7A4FC2020FEF7A4FC0020FEF7A1FC76
:101E50001720FEF79EFC0020FEF79BFC0120FEF7FA
:101E600098FC0020FEF795FCC720FEF78FFC0020B1
:101E7000FEF78FFC0020FEF78CFC0020FEF789FCAB
:101E80000020FEF786FCC820FEF780FC0020FEF74D
:101E900080FC0020FEF77DFC0020FEF77AFC00208D
:101EA000FEF777FCC920FEF771FC0020FEF771FCFD
:101EB0000020FEF76EFC0020FEF76BFC0020FEF712
:101EC00068FC0020FEF765FC0020FEF762FC0020A5
:101ED000FEF75FFC0020FEF75CFC0020FEF759FCDB
:101EE0000020FEF756FC0020FEF753FC0020FEF712
:101EF00050FC0020FEF74DFC0020FEF74AFC0020BD
:101F0000FEF747FC0020FEF744FCE020FEF73EFC15
:101F10001620FEF73EFC0020FEF73BFC1C20FEF7DF
:101F200038FC0020FEF735FC2120FEF732FC0020B3
:101F3000FEF72FFC3620FEF72CFC0020FEF729FCD4
:101F40004620FEF726FC0020FEF723FC5220FEF779
:101F500020FC0020FEF71DFC6420FEF71AFC002088
:101F6000FEF717FC7A20FEF714FC0020FEF711FCA8
:101F70008B20FEF70EFC0020FEF70BFC9920FEF7ED
:101F800008FC0020FEF705FCA820FEF702FC00205C
:101F9000FEF7FFFBB920FEF7FCFB0020FEF7F9FB84
:101FA000C420FEF7F6FB0020FEF7F3FBCA20FEF785
:101FB000F0FB0020FEF7EDFBD220FEF7EAFB00204D
:101FC000FEF7E7FBD920FEF7E4FB0020FEF7E1FB7C
:101FD000E020FEF7DEFB0020FEF7DBFBF320FEF740
:101FE000D8FB0020FEF7D5FBE120FEF7CFFB162043
:101FF000FEF7CFFB0020FEF7CCFB1C20FEF7C9FB51
:102000000020FEF7C6FB2220FEF7C3FB0020FEF7F0
:10201000C0FB3620FEF7BDFB0020FEF7BAFB4520D3
:10202000FEF7B7FB0020FEF7B4FB5220FEF7B1FB32
:102030000020FEF7AEFB6420FEF7ABFB0020FEF7AE
:10204000A8FB7A20FEF7A5FB0020FEF7A2FB8B2061
:10205000FEF79FFB0020FEF79CFB9920FEF799FB03
:102060000020FEF796FBA820FEF793FB0020FEF76A
:1020700090FBB920FEF78DFB0020FEF78AFBC42001
:10208000FEF787FB0020FEF784FBCA20FEF781FBEA
:102090000020FEF77EFBD220FEF77BFB0020FEF740
:1020A00078FBD820FEF775FB0020FEF772FBE020DE
:1020B000FEF76FFB0020FEF76CFBF320FEF769FBD9
:1020C0000020FEF766FBE220FEF760FB0520FEF72E
:1020D00060FB0020FEF75DFB0B20FEF75AFB0020A3
:1020E000FEF757FB1B20FEF754FB0020FEF751FBC9
:1020F0003420FEF74EFB0020FEF74BFB4420FEF79A
:1021000048FB0020FEF745FB4F20FEF742FB002076
:10211000FEF73FFB6120FEF73CFB0020FEF739FB9A
:102120007920FEF736FB0020FEF733FB8820FEF710
:1021300030FB0020FEF72DFB9720FEF72AFB002046
:10214000FEF727FBA620FEF724FB0020FEF721FB6D
:10215000B720FEF71EFB0020FEF71BFBC220FEF798
:1021600018FB0020FEF715FBC720FEF712FB00202E
:10217000FEF70FFBD120FEF70CFB0020FEF709FB5A
:10218000D620FEF706FB0020FEF703FBDD20FEF75E
:1021900000FB0020FEF7FDFAF320FEF7FAFA00201C
:1021A000FEF7F7FAE320FEF7F1FA0520FEF7F1FA61
:1021B0000020FEF7EEFA0A20FEF7EBFA0020FEF709
:1021C000E8FA1C20FEF7E5FA0020FEF7E2FA3320D9
:1021D000FEF7DFFA0020FEF7DCFA4420FEF7D9FA1A
:1021E0000020FEF7D6FA5020FEF7D3FA0020FEF7C3
:1021F000D0FA6220FEF7CDFA0020FEF7CAFA782066
:10220000FEF7C7FA0020FEF7C4FA8820FEF7C1FAED
:102210000020FEF7BEFA9720FEF7BBFA0020FEF77B
:10222000B8FAA620FEF7B5FA0020FEF7B2FAB720FA
:10223000FEF7AFFA0020FEF7ACFAC220FEF7A9FACB
:102240000020FEF7A6FAC720FEF7A3FA0020FEF74B
:10225000A0FAD120FEF79DFA0020FEF79AFAD520C9
:10226000FEF797FA0020FEF794FADD20FEF791FAC8
:102270000020FEF78EFAF320FEF78BFA0020FEF71F
:1022800088FAE420FEF782FA0120FEF782FA0020A5
:10229000FEF77FFA0120FEF77CFA0020FEF779FABC
:1022A0000220FEF776FA0020FEF773FA2A20FEF7E6
:1022B00070FA0020FEF76DFA3C20FEF76AFA002063
:1022C000FEF767FA4B20FEF764FA0020FEF761FA8A
:1022D0005D20FEF75EFA0020FEF75BFA7420FEF741
:1022E00058FA0020FEF755FA8420FEF752FA002033
:1022F000FEF74FFA9320FEF74CFA0020FEF749FA5A
:10230000A220FEF746FA0020FEF743FAB320FEF7BC
:1023100040FA0020FEF73DFABE20FEF73AFA002010
:10232000FEF737FAC420FEF734FA0020FEF731FA40
:10233000CD20FEF72EFA0020FEF72BFAD320FEF771
:1023400028FA0020FEF725FADD20FEF722FA002009
:10235000FEF71FFAF320FEF71CFA0020FEF719FA29
:10236000E520FEF713FA0020FEF713FA0020FEF72F
:1023700010FA0020FEF70DFA0020FEF70AFA0220FC
:10238000FEF707FA0020FEF704FA2920FEF701FA0B
:102390000020FEF7FEF93C20FEF7FBF90020FEF7D7
:1023A000F8F94B20FEF7F5F90020FEF7F2F95D2071
:1023B000FEF7EFF90020FEF7ECF97420FEF7E9F9DB
:1023C0000020FEF7E6F98420FEF7E3F90020FEF78F
:1023D000E0F99320FEF7DDF90020FEF7DAF9A220FC
:1023E000FEF7D7F90020FEF7D4F9B320FEF7D1F9B4
:1023F0000020FEF7CEF9BE20FEF7CBF90020FEF755
:10240000C8F9C420FEF7C5F90020FEF7C2F9CD20B7
:10241000FEF7BFF90020FEF7BCF9D320FEF7B9F9AB
:102420000020FEF7B6F9DC20FEF7B3F90020FEF736
:10243000B0F9F320FEF7ADF90020FEF7AAF9E62087
:10244000FEF7A4F91120FEF7A4F90020FEF7A1F988
:102450003420FEF79EF90020FEF79BF95620FEF788
:1024600098F90020FEF795F97620FEF792F9002002
:10247000FEF78FF97720FEF78CF90020FEF789F937
:102480006620FEF786F90020FEF783F98820FEF724
:1024900080F90020FEF77DF99920FEF77AF90020F7
:1024A000FEF777F9BB20FEF774F90020FEF771F90B
:1024B0009920FEF76EF90020FEF76BF96620FEF713
:1024C00068F90020FEF765F95520FEF762F9002053
:1024D000FEF75FF95520FEF75CF90020FEF759F989
:1024E0004520FEF756F90020FEF753F94320FEF78A
:1024F00050F90020FEF74DF94420FEF74AF900207C
:10250000FEF747F9E720FEF741F93220FEF741F9DF
:102510000020FEF73EF95520FEF73BF90020FEF7BC
:1025200038F97620FEF735F90020FEF732F96620FB
:10253000FEF72FF90020FEF72CF96720FEF729F9A6
:102540000020FEF726F96720FEF723F90020FEF7AA
:1025500020F98720FEF71DF90020FEF71AF99920CF
:10256000FEF717F90020FEF714F9BB20FEF711F96A
:102570000020FEF70EF99920FEF70BF90020FEF778
:1025800008F97720FEF705F90020FEF702F944204C
:10259000FEF7FFF80020FEF7FCF85620FEF7F9F8EA
:1025A0000020FEF7F6F82320FEF7F3F80020FEF7F0
:1025B000F0F83320FEF7EDF80020FEF7EAF84520AA
:1025C000FEF7E7F80020FEF7E4F8E820FEF7DEF873
:1025D0000020FEF7DEF80020FEF7DBF89920FEF77A
:1025E000D8F80020FEF7D5F88720FEF7D2F80020B3
:1025F000FEF7CFF88820FEF7CCF80020FEF7C9F8E8
:102600007720FEF7C6F80020FEF7C3F86620FEF735
:10261000C0F80020FEF7BDF88820FEF7BAF80020C9
:10262000FEF7B7F8AA20FEF7B4F80020FEF7B1F8DD
:10263000BB20FEF7AEF80020FEF7ABF89920FEF7BE
:10264000A8F80020FEF7A5F86620FEF7A2F8002003
:10265000FEF79FF85520FEF79CF80020FEF799F84A
:102660005520FEF796F80020FEF793F84420FEF779
:1026700090F80020FEF78DF84420FEF78AF800203D
:10268000FEF787F85520FEF784F80020FEF781F862
:10269000E920FEF77BF8AA20FEF77BF80020FEF782
:1026A00078F80020FEF775F80020FEF772F8002099
:1026B000FEF76CF8AA20FEF76CF8CF20FEF766F85C
:1026C0000020FEF766F80020FEF763F80020FEF712
:1026D00060F80020FEF75DF80020FEF75AF80020B1
:1026E000FEF757F80020FEF754F80020FEF751F8E7
:1026F0000020FEF74EF80020FEF74BF80020FEF712
:1027000048F80020FEF745F80020FEF742F80020C8
:10271000FEF73FF80020FEF73CF80020FEF739F8FE
:102720000020FEF736F8F020FEF730F80020FEF724
:1027300030F85020FEF72DF80020FEF72AF8002090
:10274000FEF727F80020FEF724F8F320FEF71EF826
:102750000020FEF71EF8F920FEF718F80620FEF715
:1027600018F81020FEF715F82920FEF712F80020BF
:10277000FEF70FF83A20FEF709F85520FEF709F8A2
:102780001120FEF703F8642003F047FA2920FDF733
:10279000FDFF3520FDF7FAFF0020FDF7FAFF51207D
:1027A000FDF7F4FFFF20FDF7F4FF5320FDF7EEFFE8
:1027B0002C20FDF7EEFF5520FDF7E8FF8220FDF706
:1027C000E8FF2C20FDF7E2FF02F0EBB8FE4880881E
:1027D00045F2105188427DD155214FF47040FDF7EC
:1027E000E0FFAA214FF20100FDF7DBFF52214FF27B
:1027F0000200FDF7D6FF08214FF20300FDF7D1FFDD
:1028000001214FF20400FDF7CCFF0D214FF43040C1
:10281000FDF7C7FF0D214BF20100FDF7C2FF0D21AF
:102820004BF20200FDF7BDFF34214FF43640FDF7B7
:10283000B8FF34214BF20160FDF7B3FF34214BF2B6
:102840000260FDF7AEFF0D214FF43140FDF7A9FF07
:102850000D214BF20110FDF7A4FF0D214BF20210E8
:10286000FDF79FFF34214FF43740FDF79AFF3421E5
:102870004BF20170FDF795FF34214BF20270FDF72A
:1028800090FF00214FF43240FDF78BFF00214BF207
:102890000120FDF786FF00214BF20220FDF781FFAA
:1028A00024214FF43840FDF77CFF24214BF6010032
:1028B000FDF777FF24214BF60200FDF772FF01219F
:1028C0004FF43F40FDF76DFF0F214FF43340FDF70C
:1028D00068FF00E0FDE30F214BF20130FDF761FFDF
:1028E0000F214BF20230FDF75CFF34214FF43940E9
:1028F000FDF757FF34214BF60110FDF752FF34214D
:102900004BF60210FDF74DFF08214FF43540FDF75F
:1029100048FF08214BF20150FDF743FF08214BF21D
:102920000250FDF73EFF03214FF44240FDF739FF0F
:1029300024214FF43A40FDF734FF24214BF60120C7
:10294000FDF72FFF24214BF60220FDF72AFF00217F
:102950004FF43C40FDF725FF78214BF60140FDF791
:1029600020FF00214BF60240FDF71BFF00214FF432
:102970003D40FDF716FF78214BF60150FDF711FFA2
:1029800000214BF60250FDF70CFF00214FF43E40B2
:10299000FDF707FF64214BF60160FDF702FF002100
:1029A0004FF45140FDF7FDFE33214DF20110FDF7CC
:1029B000F8FE00214DF20210FDF7F3FE34214DF236
:1029C0000310FDF7EEFE00214DF20410FDF7E9FEC5
:1029D0003A214DF20510FDF7E4FE00214DF20610FC
:1029E000FDF7DFFE4A214DF20710FDF7DAFE002168
:1029F0004DF20810FDF7D5FE5C214DF20910FDF7F0
:102A0000D0FE00214DF20A10FDF7CBFE81214DF2E0
:102A10000B10FDF7C6FE00214DF20C10FDF7C1FEB4
:102A2000A6214DF20D10FDF7BCFE00214DF20E1057
:102A3000FDF7B7FEE5214DF20F10FDF7B2FE0121C3
:102A40004DF21010FDF7ADFE13214DF21110FDF700
:102A5000A8FE01214DF21210FDF7A3FE54214DF204
:102A60001310FDF79EFE01214DF21410FDF799FEA3
:102A700082214DF21510FDF794FE01214DF2161042
:102A8000FDF78FFECA214DF21710FDF78AFE0221D5
:102A90004DF21810FDF785FE00214DF21910FDF7DB
:102AA00080FE02214DF21A10FDF77BFE01214DF24E
:102AB0001B10FDF776FE02214DF21C10FDF771FE92
:102AC00034214DF21D10FDF76CFE02214DF21E1057
:102AD000FDF767FE67214DF21F10FDF762FE022130
:102AE0004DF22010FDF75DFE84214DF22110FDF71F
:102AF00058FE02214DF22210FDF753FEA4214DF2A3
:102B00002310FDF74EFE02214DF22410FDF749FE81
:102B1000B7214DF22510FDF744FE02214DF226109B
:102B2000FDF73FFECF214DF22710FDF73AFE0221BF
:102B30004DF22810FDF735FEDE214DF22910FDF78C
:102B400030FE02214DF22A10FDF72BFEF2214DF24C
:102B50002B10FDF726FE02214DF22C10FDF721FE71
:102B6000FE214DF22D10FDF71CFE03214DF22E101B
:102B7000FDF717FE10214DF22F10FDF712FE032175
:102B80004DF23010FDF70DFE33214DF23110FDF7FF
:102B900008FE03214DF23210FDF703FE6D214DF2C8
:102BA0003310FDF7FEFD00214FF45240FDF7F9FD13
:102BB00033214DF20120FDF7F4FD00214DF20220FA
:102BC000FDF7EFFD342101E0580000204DF2032015
:102BD000FDF7E7FD00214DF20420FDF7E2FD3A216B
:102BE0004DF20520FDF7DDFD00214DF20620FDF739
:102BF000D8FD4A214DF20720FDF7D3FD00214DF20B
:102C00000820FDF7CEFD5C214DF20920FDF7C9FD3E
:102C100000214DF20A20FDF7C4FD81214DF20B2069
:102C2000FDF7BFFD00214DF20C20FDF7BAFDA621F6
:102C30004DF20D20FDF7B5FD00214DF20E20FDF700
:102C4000B0FDE5214DF20F20FDF7ABFD01214DF266
:102C50001020FDF7A6FD13214DF21120FDF7A1FD77
:102C600001214DF21220FDF79CFD54214DF213205D
:102C7000FDF797FD01214DF21420FDF792FD822111
:102C80004DF21520FDF78DFD01214DF21620FDF7C7
:102C900088FDCA214DF21720FDF783FD02214DF278
:102CA0001820FDF77EFD00214DF21920FDF779FD7A
:102CB00002214DF21A20FDF774FD01214DF21B2077
:102CC000FDF76FFD02214DF21C20FDF76AFD342156
:102CD0004DF21D20FDF765FD02214DF21E20FDF78E
:102CE00060FD67214DF21F20FDF75BFD02214DF2D3
:102CF0002020FDF756FD84214DF22120FDF751FDE6
:102D000002214DF22220FDF74CFDA4214DF223209B
:102D1000FDF747FD02214DF22420FDF742FDB721CA
:102D20004DF22520FDF73DFD02214DF22620FDF755
:102D300038FDCF214DF22720FDF733FD02214DF262
:102D40002820FDF72EFDDE214DF22920FDF729FD7B
:102D500002214DF22A20FDF724FDF2214DF22B2015
:102D6000FDF71FFD02214DF22C20FDF71AFDFE217B
:102D70004DF22D20FDF715FD03214DF22E20FDF71C
:102D800010FD10214DF22F20FDF70BFD03214DF218
:102D90003020FDF706FD33214DF23120FDF701FD16
:102DA00003214DF23220FDF7FCFC6D214DF2332062
:102DB000FDF7F7FC00214FF45340FDF7F2FC3321FF
:102DC0004DF20130FDF7EDFC00214DF20230FDF730
:102DD000E8FC34214DF20330FDF7E3FC00214DF215
:102DE0000430FDF7DEFC3A214DF20530FDF7D9FC49
:102DF00000214DF20630FDF7D4FC4A214DF2073098
:102E0000FDF7CFFC00214DF20830FDF7CAFC5C2134
:102E10004DF20930FDF7C5FC00214DF20A30FDF7F7
:102E2000C0FC81214DF20B30FDF7BBFC00214DF2BF
:102E30000C30FDF7B6FCA6214DF20D30FDF7B1FCCC
:102E400000214DF20E30FDF7ACFCE5214DF20F30C4
:102E5000FDF7A7FC01214DF21030FDF7A2FC132174
:102E60004DF21130FDF79DFC01214DF21230FDF7BE
:102E700098FC54214DF21330FDF793FC01214DF2E3
:102E80001430FDF78EFC82214DF21530FDF789FCE0
:102E900001214DF21630FDF784FCCA214DF21730A6
:102EA000FDF77FFC02214DF21830FDF77AFC00217E
:102EB0004DF21930FDF775FC02214DF21A30FDF785
:102EC00070FC01214DF21B30FDF76BFC02214DF22D
:102ED0001C30FDF766FC34214DF21D30FDF761FC1E
:102EE00002214DF21E30FDF75CFC67214DF21F30D0
:102EF000FDF757FC02214DF22030FDF752FC8421F2
:102F00004DF22130FDF74DFC02214DF22230FDF74C
:102F100048FCA4214DF22330FDF743FC02214DF281
:102F20002430FDF73EFCB7214DF22530FDF739FC8A
:102F300002214DF22630FDF734FCCF214DF227302F
:102F4000FDF72FFC02214DF22830FDF72AFCDE218F
:102F50004DF22930FDF725FC02214DF22A30FDF714
:102F600020FCF2214DF22B30FDF71BFC02214DF22B
:102F70002C30FDF716FCFE214DF22D30FDF711FC33
:102F800003214DF22E30FDF70CFC10214DF22F30B5
:102F9000FDF707FC03214DF23030FDF702FC332131
:102FA0004DF23130FDF7FDFB03214DF23230FDF7DC
:102FB000F8FB6D214DF23330FDF7F3FB00214FF4A8
:102FC0005440FDF7EEFB33214DF20140FDF7E9FBE4
:102FD00000214DF20240FDF7E4FB34214DF20340A5
:102FE000FDF7DFFB00214DF20440FDF7DAFB3A214B
:102FF0004DF20540FDF7D5FB00214DF20640FDF7EF
:10300000D0FB4A214DF20740FDF7CBFB00214DF2EA
:103010000840FDF7C6FB5C214DF20940FDF7C1FBFE
:1030200000214DF20A40FDF7BCFB81214DF20B401F
:10303000FDF7B7FB00214DF20C40FDF7B2FBA621D6
:103040004DF20D40FDF7ADFB00214DF20E40FDF7B6
:10305000A8FBE5214DF20F40FDF7A3FB01214DF246
:103060001040FDF79EFB13214DF21140FDF799FB37
:1030700001214DF21240FDF794FB54214DF2134013
:10308000FDF78FFB01214DF21440FDF78AFB8221F1
:103090004DF21540FDF785FB01214DF21640FDF77D
:1030A00080FBCA214DF21740FDF77BFB02214DF258
:1030B0001840FDF776FB00214DF21940FDF771FB3A
:1030C00002214DF21A40FDF76CFB01214DF21B402D
:1030D00000E006E3FDF765FB02214DF21C40FDF721
:1030E00060FB34214DF21D40FDF75BFB02214DF2E8
:1030F0001E40FDF756FB67214DF21F40FDF751FBC7
:1031000002214DF22040FDF74CFB84214DF221407D
:10311000FDF747FB02214DF22240FDF742FBA421BF
:103120004DF22340FDF73DFB02214DF22440FDF717
:1031300038FBB7214DF22540FDF733FB02214DF25C
:103140002640FDF72EFBCF214DF22740FDF729FB4E
:1031500002214DF22840FDF724FBDE214DF22940EB
:10316000FDF71FFB02214DF22A40FDF71AFBF22169
:103170004DF22B40FDF715FB02214DF22C40FDF7DF
:1031800010FBFE214DF22D40FDF70BFB03214DF20C
:103190002E40FDF706FB10214DF22F40FDF701FBFD
:1031A00003214DF23040FDF7FCFA33214DF231405E
:1031B000FDF7F7FA03214DF23240FDF7F2FA6D21E7
:1031C0004DF23340FDF7EDFA00214FF45540FDF785
:1031D000E8FA33214DF20150FDF7E3FA00214DF2F8
:1031E0000250FDF7DEFA34214DF20350FDF7D9FA13
:1031F00000214DF20450FDF7D4FA3A214DF205506A
:10320000FDF7CFFA00214DF20650FDF7CAFA4A2128
:103210004DF20750FDF7C5FA00214DF20850FDF7B9
:10322000C0FA5C214DF20950FDF7BBFA00214DF2C6
:103230000A50FDF7B6FA81214DF20B50FDF7B1FAB5
:1032400000214DF20C50FDF7ACFAA6214DF20D50C5
:10325000FDF7A7FA00214DF20E50FDF7A2FAE52185
:103260004DF20F50FDF79DFA01214DF21050FDF780
:1032700098FA13214DF21150FDF793FA01214DF206
:103280001250FDF78EFA54214DF21350FDF789FAD2
:1032900001214DF21450FDF784FA82214DF21550B0
:1032A000FDF77FFA01214DF21650FDF77AFACA2197
:1032B0004DF21750FDF775FA02214DF21850FDF747
:1032C00070FA00214DF21950FDF76BFA02214DF210
:1032D0001A50FDF766FA01214DF21B50FDF761FA15
:1032E00002214DF21C50FDF75CFA34214DF21D50C5
:1032F000FDF757FA02214DF21E50FDF752FA6721F1
:103300004DF21F50FDF74DFA02214DF22050FDF70E
:1033100048FA84214DF22150FDF743FA02214DF283
:103320002250FDF73EFAA4214DF22350FDF739FA61
:1033300002214DF22450FDF734FAB7214DF2255009
:10334000FDF72FFA02214DF22650FDF72AFACF2180
:103350004DF22750FDF725FA02214DF22850FDF7D6
:1033600020FADE214DF22950FDF71BFA02214DF221
:103370002A50FDF716FAF2214DF22B50FDF711FA03
:1033800002214DF22C50FDF70CFAFE214DF22D508A
:10339000FDF707FA03214DF22E50FDF702FA102136
:1033A0004DF22F50FDF7FDF903214DF23050FDF79E
:1033B000F8F933214DF23150FDF7F3F903214DF2C5
:1033C0003250FDF7EEF96D214DF23350FDF7E9F97A
:1033D00000214FF45640FDF7E4F933214DF201602E
:1033E000FDF7DFF900214DF20260FDF7DAF9342133
:1033F0004DF20360FDF7D5F900214DF20460FDF7B1
:10340000D0F93A214DF20560FDF7CBF900214DF2DC
:103410000660FDF7C6F94A214DF20760FDF7C1F9D4
:1034200000214DF20860FDF7BCF95C214DF2096006
:10343000FDF7B7F900214DF20A60FDF7B2F98121DD
:103440004DF20B60FDF7ADF900214DF20C60FDF778
:10345000A8F9A6214DF20D60FDF7A3F900214DF268
:103460000E60FDF79EF9E5214DF20F60FDF799F929
:1034700001214DF21060FDF794F913214DF2116016
:10348000FDF78FF901214DF21260FDF78AF9542101
:103490004DF21360FDF785F901214DF21460FDF73F
:1034A00080F982214DF21560FDF77BF901214DF283
:1034B0001660FDF776F9CA214DF21760FDF771F934
:1034C00002214DF21860FDF76CF900214DF21960F0
:1034D000FDF767F902214DF21A60FDF762F901214B
:1034E0004DF21B60FDF75DF902214DF21C60FDF706
:1034F00058F934214DF21D60FDF753F902214DF2C8
:103500001E60FDF74EF967214DF21F60FDF749F986
:1035100002214DF22060FDF744F984214DF2216033
:10352000FDF73FF902214DF22260FDF73AF9A4219F
:103530004DF22360FDF735F902214DF22460FDF7CD
:1035400030F9B7214DF22560FDF72BF902214DF23C
:103550002660FDF726F9CF214DF22760FDF721F90E
:1035600002214DF22860FDF71CF9DE214DF22960A1
:10357000FDF717F902214DF22A60FDF712F9F22149
:103580004DF22B60FDF70DF902214DF22C60FDF795
:1035900008F9FE214DF22D60FDF703F903214DF2EC
:1035A0002E60FDF7FEF810214DF22F60FDF7F9F8BF
:1035B00003214DF23060FDF7F4F833214DF2316014
:1035C000FDF7EFF803214DF23260FDF7EAF86D21C7
:1035D0004DF23360FDF7E5F855214FF47040FDF7EB
:1035E000E0F8AA214FF20100FDF7DBF852214FF27B
:1035F0000200FDF7D6F808214FF20300FDF7D1F8DD
:1036000000214FF20400FDF7CCF8CC214FF43140FB
:10361000FDF7C7F800214BF20110FDF7C2F80521B4
:103620004FF43640FDF7BDF870214FF43740FDF7F9
:10363000B8F870214BF20170FDF7B3F801214FF497
:103640003840FDF7AEF803214BF60100FDF7A9F86D
:1036500003214BF60200FDF7A4F803214BF603000B
:10366000FDF79FF802214FF43C40FDF79AF8002146
:103670004BF60140FDF795F800214BF60240FDF7AF
:1036800090F8D0214FF44940FDF78BF802214CF619
:103690000110FDF786F850214CF60210FDF781F875
:1036A00050214CF60310FDF77CF850214CF6041025
:1036B000FDF777F800214FF45450FDF772F85521CB
:1036C0004FF46850FDF76DF84FF48850FDF75EF841
:1036D000782002F07EFA4FF42450FDF757F801F0FD
:1036E00060B9FE48808849F2253188427ED147F68C
:1036F000F001E520FDF755F84FF480710120FDF74A
:1037000050F84FF4E0610220FDF74BF841F2300130
:103710000320FDF746F800210420FDF742F840F2AF
:1037200002210820FDF73DF800210920FDF739F8B6
:1037300000210A20FDF735F800210C20FDF731F8B3
:1037400000210D20FDF72DF800210F20FDF729F8AD
:1037500000211020FDF725F807211120FDF721F8A1
:1037600000211220FDF71DF800211320FDF719F8A4
:1037700000210720FDF715F841F290611020FDF7B8
:1037800010F840F227211120FDF70BF89D2112209F
:10379000FDF707F84FF4C8511320FDF702F8252173
:1037A0002920FCF7FEFF0D212B20FCF7FAFF072153
:1037B0003020FCF7F6FF40F203313120FCF7F1FF37
:1037C00003213220FCF7EDFF40F206213520FCF703
:1037D000E8FF08213620FCF7E4FF40F206413720DD
:1037E000FCF7DFFF4FF44171382000E057E0FCF7B1
:1037F000D8FF07213920FCF7D4FF40F202613C20BA
:10380000FCF7CFFF08213D20FCF7CBFF0021502023
:10381000FCF7C7FFEF215120FCF7C3FF0021522026
:10382000FCF7BFFF40F23F115320FCF7BAFF4FF403
:1038300027416020FCF7B5FF01216120FCF7B1FFB3
:1038400000216A20FCF7ADFF00218020FCF7A9FFD2
:1038500000218120FCF7A5FF00218220FCF7A1FFB9
:1038600000218320FCF79DFF00218420FCF799FFB5
:1038700000218520FCF795FF10219020FCF791FF97
:103880004FF4C0619220FCF78CFF40F23311072007
:10389000FCF787FF22210020FCF783FF1FE78F48FA
:1038A000808849F2283188427ED141F28F01EC2094
:1038B000FCF777FF41F23421EF20FCF772FF4FF461
:1038C00080710120FCF76DFF4FF4E0610220FCF7EE
:1038D00068FF41F230010320FCF763FF0021042060
:1038E000FCF75FFF40F202210820FCF75AFF00219D
:1038F0000920FCF756FF00210A20FCF752FF0121A6
:103900000C20FCF74EFF00210D20FCF74AFF0021A0
:103910000F20FCF746FF00211020FCF742FF072193
:103920001120FCF73EFF00211220FCF73AFF002196
:103930001320FCF736FF01210720FCF732FF32206D
:1039400002F06BF941F290411020FCF72AFF40F29F
:1039500027211120FCF725FF322002F05EF98A2191
:103960001220FCF71EFF322002F057F94FF4D0511D
:103970001320FCF716FF06212920FCF712FF0D216A
:103980002B20FCF70EFF322002F047F90021202007
:10399000FCF707FF00212120FCF703FF322002F093
:1039A0003CF90021302000E074E0FCF7FAFE40F220
:1039B00004613120FCF7F5FE40F205313220FCF7BE
:1039C000F0FE00213520FCF7ECFE40F609413620E0
:1039D000FCF7E7FE4FF401713720FCF7E2FE40F2FE
:1039E00001313820FCF7DDFE40F207713920FCF789
:1039F000D8FE00213C20FCF7D4FE40F60A213D20F1
:103A0000FCF7CFFE322002F008F900215020FCF72D
:103A1000C8FEEF215120FCF7C4FE00215220FCF724
:103A2000C0FE40F23F115320FCF7BBFE4FF427418C
:103A30006020FCF7B6FE01216120FCF7B2FE0021F8
:103A40006A20FCF7AEFE00218020FCF7AAFE0021D0
:103A50008120FCF7A6FE00218220FCF7A2FE0021B7
:103A60008320FCF79EFE00218420FCF79AFE0021B3
:103A70008520FCF796FE10219020FCF792FE4FF473
:103A8000C0619220FCF78DFE40F233110720FCF755
:103A900088FE24E61148808849F2203188427DD191
:103AA00000210846FCF77DFE4FF480710120FCF7F1
:103AB00078FE4FF4E0610220FCF773FE41F2300122
:103AC0000320FCF76EFE00210420FCF76AFE40F2A2
:103AD00002210820FCF765FE002101E058000020CB
:103AE0000920FCF75EFE00210A20FCF75AFE0121A6
:103AF0000C20FCF756FE00210D20FCF752FE0021A1
:103B00000F20FCF74EFE322002F087F840F2011140
:103B10000720FCF746FE322002F07FF84FF4865172
:103B20001020FCF73EFE07211120FCF73AFE4FF46F
:103B300088711220FCF735FE4FF430611320FCF73A
:103B400030FE00212920FCF72CFE44F210012B202E
:103B5000FCF727FE00215020FCF723FEEF21512027
:103B6000FCF71FFE00215220FCF71BFE40F23F1124
:103B70005320FCF716FE4FF41C516020FCF711FE99
:103B800001216120FCF70DFE00216A20FCF709FEEF
:103B900000218020FCF705FE002100E031E08120BB
:103BA000FCF7FFFD00218220FCF7FBFD00218320B4
:103BB000FCF7F7FD00218420FCF7F3FD00218520B0
:103BC000FCF7EFFD10219020FCF7EBFD0021922087
:103BD000FCF7E7FD01219320FCF7E3FD4FF488712A
:103BE0009520FCF7DEFD00219720FCF7DAFD00218F
:103BF0009820FCF7D6FD40F273110720FCF7D1FDA9
:103C00006DE5FE48808849F2313188427DD141F22C
:103C10001401E720FCF7C5FD4FF480710120FCF78B
:103C2000C0FD4FF400710220FCF7BBFD41F23801EA
:103C30000320FCF7B6FD40F202210820FCF7B1FD9D
:103C400000210920FCF7ADFD00210A20FCF7A9FDA9
:103C500000210C20FCF7A5FD00210D20FCF7A1FDA3
:103C600000210F20FCF79DFD00211020FCF799FD9D
:103C700007211120FCF795FD00211220FCF791FD92
:103C800000211320FCF78DFDC82001F0C6FF41F292
:103C900090611020FCF785FD40F227211120FCF7F0
:103CA00080FD322001F0B9FF0C211220FCF779FDD4
:103CB000322001F0B2FF4FF400611320FCF771FDD8
:103CC00011212920FCF76DFD0B212B20FCF769FD4C
:103CD000322001F0A2FF00212020FCF762FD40F21B
:103CE0003F112120FCF75DFD00213020FCF759FD3C
:103CF0004FF483713120FCF754FD00213220FCF792
:103D000050FD4FF40171352000E064E0FCF749FDFF
:103D100041F20A613620FCF744FD40F2077137207A
:103D2000FCF73FFD4FF483713820FCF73AFD40F279
:103D300007713920FCF735FD40F202413C20FCF7C9
:103D400030FD40F60F413D20FCF72BFD00215020B7
:103D5000FCF727FDEF215120FCF723FD0021522025
:103D6000FCF71FFD40F23F115320FCF71AFD4FF402
:103D70001C516020FCF715FD01216120FCF711FDAD
:103D800000216A20FCF70DFD00218020FCF709FDD1
:103D900000218120FCF705FD00218220FCF701FDB8
:103DA00000218320FCF7FDFC00218420FCF7F9FCB6
:103DB00000218520FCF7F5FC10219020FCF7F1FC98
:103DC0004FF4C0619220FCF7ECFC40F23311072065
:103DD000FCF7E7FC83E48948808845F20841884283
:103DE0007ED14FF480710120FCF7DBFC4FF4E061E1
:103DF0000220FCF7D6FC41F230010320FCF7D1FC95
:103E000000210420FCF7CDFC40F207210820FCF73C
:103E1000C8FC00210920FCF7C4FC00210A20FCF7A3
:103E2000C0FC00210C20FCF7BCFC00210D20FCF79D
:103E3000B8FC00210F20FCF7B4FC142001F0EDFECB
:103E400041F2B0611020FCF7ACFC01211120FCF71D
:103E5000A8FC01211720FCF7A4FC4FF49C71122050
:103E6000FCF79FFC4FF400611320FCF79AFC09213A
:103E70002920FCF796FC09212A20FCF792FC00215E
:103E8000A420FCF78EFC00215020FCF78AFCEF21D7
:103E90005120FCF786FC00215220FCF782FC40F206
:103EA0003F115320FCF77DFC4FF41C516020FCF7C0
:103EB00078FC01216120FCF774FC00216A20FCF7EA
:103EC00070FC00218020FCF76CFC00218120FCF7B5
:103ED00068FC00218220FCF764FC0021832000E0C4
:103EE00023E0FCF75EFC00218420FCF75AFC002153
:103EF0008520FCF756FC13219020FCF752FC002192
:103F00009220FCF74EFC03219320FCF74AFC4FF46F
:103F100088719520FCF745FC40F273110720FCF7EF
:103F200040FC322001F079FEB8E43448808841F248
:103F3000055188427ED100210720FCF732FC322057
:103F400001F06BFE4FF48E711220FCF72AFC012168
:103F5000A420FCF726FC0F210820FCF722FC0821F6
:103F60000A20FCF71EFC08210D20FCF71AFC40F289
:103F700007713020FCF715FC07213120FCF711FCFC
:103F800040F203613220FCF70CFC4FF4E061332077
:103F9000FCF707FC40F202213420FCF702FC02216E
:103FA0003520FCF7FEFB41F60F713620FCF7F9FBDC
:103FB00040F207713720FCF7F4FB00213820FCF7B2
:103FC000F0FB00213920FCF7ECFB40F207713A20AE
:103FD000FCF7E7FB00213B20FCF7E3FB07213C203B
:103FE000FCF7DFFB00213D20FCF7DBFB322001F07A
:103FF00014FE01210720FCF7D4FB01E0580000204B
:1040000001211720FCF7CDFB322001F006FE4FF412
:10401000BD511020FCF7C5FB40F217211120FCF721
:10402000C0FB4FF48F711220FCF7BBFB4FF47061A3
:10403000132000E097E0FCF7B4FB00212A20FCF7F6
:10404000B0FB0A212920FCF7ACFB4FF49F71122032
:10405000FCF7A7FB00215020FCF7A3FBEF21512028
:10406000FCF79FFB00215220FCF79BFB40F23F1125
:104070005320FCF796FB4FF41C516020FCF791FB9A
:1040800001216120FCF78DFB00216A20FCF789FBF0
:1040900000218020FCF785FB00218120FCF781FBBB
:1040A00000218220FCF77DFB00218320FCF779FBB7
:1040B00000218420FCF775FB00218520FCF771FBB3
:1040C00013219020FCF76DFB4FF440719220FCF718
:1040D00068FB05219320FCF764FB00219520FCF789
:1040E00060FB00219720FCF75CFB00219820FCF787
:1040F00058FB4FF480710120FCF753FB4FF4E06153
:104100000220FCF74EFB41F238010320FCF749FB8B
:1041100000210420FCF745FB00210C20FCF741FBAB
:1041200000210F20FCF73DFB00212020FCF739FB8C
:1041300000212120FCF735FB21210720FCF731FB72
:10414000142001F06AFD61210720FCF72AFB1420EE
:1041500001F063FD40F273110720FCF722FB1420ED
:1041600001F05BFD95E4FE4880884BF205518842E2
:104170007ED100210846FCF714FB00210846FCF71D
:1041800010FB00210846FCF70CFB00210846FCF759
:1041900008FB0121A420FCF704FB142001F03DFDE5
:1041A0004FF41C516020FCF7FCFA40F20221082079
:1041B000FCF7F7FA4FF405713020FCF7F2FA43F2FE
:1041C00015713120FCF7EDFA40F204613220FCF762
:1041D000E8FA40F616613320FCF7E3FA42F21121C7
:1041E0003420FCF7DEFA4FF4A8513520FCF7D9FA59
:1041F00048F207513620FCF7D4FA41F20741372044
:10420000FCF7CFFA41F203413820FCF7CAFA20212B
:104210003920FCF7C6FA1A219020FCF7C2FA0021D7
:104220001020FCF7BEFA07211120FCF7BAFA002192
:104230001220FCF7B6FA00211320FCF7B2FA142082
:1042400001F0EBFC4FF4E6611020FCF7AAFA40F213
:1042500037111120FCF7A5FA142001F0DEFC4FF411
:10426000DC711220FCF79DFA142001F0D6FC00E06E
:1042700083E04FF470611320FCF793FA80212A2029
:10428000FCF78FFA48212920FCF78BFA142001F063
:10429000C4FC4FF480710120FCF783FA4FF4E06115
:1042A0000220FCF77EFA41F238010320FCF779FA8C
:1042B00040F202210820FCF774FA00210A20FCF7E2
:1042C00070FA00210C20FCF76CFA00210D20FCF79D
:1042D00068FA30210E20FCF764FA00215020FCF728
:1042E00060FAEF215120FCF75CFA00215220FCF724
:1042F00058FA40F23F115320FCF753FA4FF41C5187
:104300006020FCF74EFA01216120FCF74AFA0021F7
:104310006A20FCF746FA11219020FCF742FA4FF48C
:10432000C0619220FCF73DFA40F202419320FCF775
:1043300038FA02219420FCF734FA142001F06DFCC5
:1043400001210720FCF72DFA142001F066FC612101
:104350000720FCF726FA40F273110720FCF721FA38
:1043600000212020FCF71DFA00212120FCF719FA7A
:1043700022210020FCF715FA13E3794880884CF2DB
:10438000055188427ED100210846FCF70AFA002137
:104390000846FCF706FA142001F03FFC002108460D
:1043A000FCF7FFF900210846FCF7FBF9002108465D
:1043B000FCF7F7F900210846FCF7F3F90121A420E6
:1043C000FCF7EFF9142001F028FC4FF41C51602099
:1043D000FCF7E7F940F606010820FCF7E2F940F2A5
:1043E00003713020FCF7DDF901213120FCF7D9F908
:1043F00004213220FCF7D5F94FF481713320FCF70A
:10440000D0F94FF440713420FCF7CBF940F203119E
:104410003520FCF7C6F91F213620FCF7C2F940F21F
:1044200003713720FCF7BDF901213820FCF7B9F9F9
:1044300004213920FCF7B5F915219020FCF7B1F9DA
:104440004FF482611020FCF7ACF940F247211120B3
:10445000FCF7A7F94FF4DE711220FCF7A2F94FF434
:1044600060611320FCF79DF9782001F0D6FB4FF432
:1044700080710120FCF795F94FF400710220FCF7E0
:1044800090F900E050E041F230010320FCF789F997
:1044900008210A20FCF785F900210C20FCF781F99E
:1044A00020210E20FCF77DF900210F20FCF779F97F
:1044B00000212020FCF775F900212120FCF771F97B
:1044C0003D212A20FCF76DF9142001F0A6FB2D21D7
:1044D0002920FCF766F900215020FCF762F94DF223
:1044E000EF015120FCF75DF900215220FCF759F94A
:1044F00040F23F115320FCF754F900216120FCF7F2
:1045000050F900216A20FCF74CF94FF440719220D9
:10451000FCF747F905219320FCF743F94FF480712C
:104520000720FCF73EF93CE20D48808848F68911E7
:1045300088427DD101210020FCF733F94AF6A4011D
:104540000320FCF72EF900210C20FCF72AF940F695
:104550000C010D20FCF725F94FF42C510E2001E041
:1045600058000020FCF71DF9B0211E20FCF719F9B6
:1045700042F63F310120FCF714F94FF4C0610220EC
:10458000FCF70FF900211020FCF70BF946F2780137
:104590001120FCF706F900210520FCF702F90021A3
:1045A0000620FCF7FEF84EF61C711620FCF7F9F811
:1045B00003211720FCF7F5F840F233210720FCF720
:1045C000F0F800210B20FCF7ECF800210F20FCF79D
:1045D000E8F800214120FCF7E4F800214220FCF734
:1045E000E0F800214820FCF7DCF840F23F114920B8
:1045F000FCF7D7F800214A20FCF7D3F800214B2024
:10460000FCF7CFF84FF46F414420FCF7CAF80021C3
:104610004520FCF7C6F840F23F114620FCF7C1F8F0
:1046200040F207713020FCF7BCF84FF4017100E054
:1046300040E03120FCF7B5F84FF401713220FCF76F
:10464000B0F840F202513320FCF7ABF840F20751CA
:104650003420FCF7A6F84FF401713520FCF7A1F8DF
:104660004FF401713620FCF79CF840F202513720DC
:10467000FCF797F840F202313A20FCF792F840F24A
:1046800002313B20FCF78DF800212320FCF789F84C
:1046900000212420FCF785F84FF400412520FCF789
:1046A00080F800214F20FCF77CF800214E20FCF719
:1046B00078F876E1F748808844F2315188427DD11C
:1046C00001210020FCF76DF80A2001F0A6FA41F262
:1046D00028611020FCF765F80E211220FCF761F824
:1046E00040F639211320FCF75CF80A2001F095FA16
:1046F00040211120FCF755F850211520FCF751F806
:104700000A2001F08AFA1E211220FCF74AF80A203A
:1047100001F083FA4FF4B1511020FCF742F842F651
:1047200039211320FCF73DF80A2001F076FA4FF406
:1047300080710120FCF735F84FF440710220FCF73E
:1047400030F841F238010320FCF72BF840F2022147
:104750000820FCF726F808210A20FCF722F800219F
:104760003020FCF71EF840F202413120FCF719F826
:104770004FF483713220FCF714F840F203513320D8
:10478000FCF70FF84FF482713420FCF70AF840F27E
:1047900001313520FCF705F840F207713620FCF7AF
:1047A00000F840F205313720FBF7FBFF4FF40271B0
:1047B0003820FBF7F6FF40F60B7100E03CE03920B3
:1047C000FBF7EFFF02214120FBF7EBFF4FF41C51F9
:1047D0006020FBF7E6FF01216120FBF7E2FF4FF4C9
:1047E00004719020FBF7DDFF4FF485719220FBF7F9
:1047F000D8FF04219320FBF7D4FF4FF48071A02051
:10480000FBF7CFFF01210720FBF7CBFF212107207A
:10481000FBF7C7FF23210720FBF7C3FF3321072046
:10482000FBF7BFFF40F233110720FBF7BAFF00216F
:10483000A020FBF7B6FFB4E09648808844F23551DB
:104840008842F8D130211520FBF7ABFF10219A20C8
:10485000FBF7A7FF20211120FBF7A3FF43F228411C
:104860001020FBF79EFF02211220FBF79AFF41F276
:1048700038011320FBF795FF282001F0CEF9122113
:104880000846FBF78EFF282001F0C7F943F22041CC
:104890001020FBF786FF43F238011320FBF781FF5E
:1048A000462001F0BAF900213020FBF77AFF40F2F0
:1048B00002413120FBF775FF40F207313220FBF750
:1048C00070FF4FF441713320FBF76BFF042134205C
:1048D000FBF767FF40F201413520FBF762FF40F232
:1048E00007713620FBF75DFF40F205313720FBF7FB
:1048F00058FF4FF4C2613820FBF753FF4FF4C261F9
:104900003920FBF74EFF4FF480710120FBF749FF80
:104910004FF440710220FBF744FF41F230010320C5
:10492000FBF73FFF40F608010820FBF73AFF08219C
:104930000A20FBF736FF4FF41C516020FBF731FFD4
:1049400001216120FBF72DFF4FF49F719020FBF7B1
:1049500028FF4FF480719220FBF723FF4FF4807102
:104960009320FBF71EFF4FF44051A020FBF719FFE7
:104970001021A320FBF715FF01210720FBF711FFF2
:1049800021210720FBF70DFF23210720FBF709FF5B
:1049900033210720FBF705FF40F233110720FBF717
:1049A00000FF0120FCF7AFFA01203B4908604FF6F9
:1049B000FF70FCF753FC1FB000BD2DE9FC4F05460E
:1049C0000E4617469846DDF82C900020019031489D
:1049D000808846F60401884229D12E488079012832
:1049E00025D1AB4635462B480088C01B401E86B2F9
:1049F000474628480088A0EB0B00401E1FFA80F8AD
:104A00000020244988712A2048812B208881434630
:104A10003A4631462846CDF80090FFF7CEFF0120F8
:104A20001C4988712B2048812A2088811CE0781B32
:104A3000401C80B20190344614E021462846FBF722
:104A4000DDFEFBF7BEFE4FF0000A06E04846FBF72E
:104A5000A0FE0AF101001FFA80FA01988245F5DBF9
:104A6000601C84B24445E8DDBDE8FC8F2DE9F84FB9
:104A700007460D4690469946DDF828B0A8EB07009A
:104A8000401C80B20090A9EB0500401C1FFA80FA80
:104A9000002419E05800002080812142281981B2A9
:104AA0003846FBF7ABFEFBF78CFE002607E004FB65
:104AB0000A603BF81000FE490880701C86B200981E
:104AC0008642F4DB601C84B25445E7DBBDE8F88F16
:104AD0002DE9FF4F84B081468A4600200390029062
:104AE0000698A0EB09050798A0EB0A06CDF80490FC
:104AF000CDF800A0002D01DD012705E00DB900274C
:104B000002E04FF0FF376D42002E02DD4FF001084A
:104B100006E016B94FF0000802E04FF0FF38764289
:104B2000B54201DD2C4600E034464FF0000B21E099
:104B3000009A91B2019A90B2FCF74CF9039828447C
:104B400003900298304402900398A04205DD039838
:104B5000001B03900198384401900298A04205DDA3
:104B60000298001B02900098404400900BF1010055
:104B70001FFA80FB601C8345DADD08B0BDE8F08FCA
:104B8000F0B504460D4616461F462B4632462946CA
:104B90002046FFF79DFF3B46224629462046FFF769
:104BA00097FF3B46324639462046FFF791FF3B468A
:104BB000324629463046FFF78BFFF0BD2DE9F04322
:104BC00006460F469046002445460320A0EB4809C0
:104BD0003CE07A1B91B2321990B2FCF7FBF83A1B19
:104BE00091B2721990B2FCF7F5F83A1991B27219B4
:104BF00090B2FCF7EFF87A1991B2321990B2FCF743
:104C0000E9F87A1991B2321B90B2FCF7E3F83A193D
:104C100091B2721B90B2FCF7DDF87A1B91B2321B95
:104C200090B2FCF7D7F83A1B91B2721B90B2FCF726
:104C3000D1F8641CB9F1000F03DAA000801D814493
:104C400004E0601B80000A3081446D1EAC42C0DD70
:104C5000BDE8F0832DE9F84F07460D4690461E4605
:104C600000959448B0F80090A8F1200000F0FF08EB
:104C70000A9800284CD1002447E00C2E05D18E481C
:104C800000EB081010F804A004E08B4800EB0810BB
:104C900010F804A04FF0000B31E00AF0800018B1CA
:104CA0008448A0F8009003E0844800888149088087
:104CB00029463846FCF78EF84FEA4A604FEA106AF8
:104CC000681C85B27E480088A84204DC7948A0F8B8
:104CD0000090BDE8F88F0098281AB0420BD1009DD3
:104CE000781C87B276480088B84203DC7148A0F887
:104CF0000090EEE706E00BF1010000F0FF0BBBF1C6
:104D0000080FCADB00BF601CC4B2B442B5DB42E08E
:104D100000243EE00C2E05D1674800EB081010F887
:104D200004A004E0644800EB081010F804A04FF061
:104D3000000B28E00AF0800018B129463846FCF73D
:104D400049F84FEA4A604FEA106A681C85B25C482D
:104D50004088B84203DC5748A0F80090B9E70098B3
:104D6000281AB0420BD1009D781C87B254480088A5
:104D7000B84203DC4F48A0F80090AAE706E00BF128
:104D8000010000F0FF0BBBF1080FD3DB00BF601C7C
:104D9000C4B2B442BEDB4748A0F8009000BF98E719
:104DA00010B50246012000E050430B00A1F10104C0
:104DB000E1B2F9D110BD2DE9FF4F81B00746914610
:104DC0001E460E9D4FF0000A002439E0301B401EA5
:104DD000C1B20A20FFF7E4FFB9FBF0F00A21B0FBF3
:104DE000F1F201FB1208BAF1000F16D1701EA042B9
:104DF00013DDB8F1000F0ED10020AB4605EBDB71DF
:104E0000491001FB0471009088B22B4620220299C0
:104E1000FFF720FF12E04FF0010A0020AB4605EB40
:104E2000DB71491001FB0471009088B208F1300178
:104E3000CAB22B460299FFF70DFF00BF601CC4B237
:104E4000B442C3DB05B0BDE8F08F2DE9FF4F82B05F
:104E5000064692461F46DDE90F48002001900025D6
:104E600059E0781B401EC1B20A20FFF799FFBAFB38
:104E7000F0F00A21B0FBF1F201FB12090198B0B980
:104E8000781EA84233DDB9F1000F2ED108F0800062
:104E9000D8B108F00100A34604EBDB71491001FB17
:104EA0000561009088B22346302203990AE01EE093
:104EB0000008006C14000020BAA0000816000020B2
:104EC00058000020FFF7C6FE0EE008F00100A346E0
:104ED00004EBDB71491001FB0561009088B22346A9
:104EE00020220399FFF7B6FE13E00120019008F09D
:104EF0000100A34604EBDB71491001FB0561009042
:104F000088B209F13001CAB223460399FFF7A2FE25
:104F100000BF681CC5B2BD42A3DB06B0BDE8F08F80
:104F20002DE9F84704460D4690469946DDE90967A4
:104F300004F0FF0A08EB04001FFA80F809EB0500F3
:104F40001FFA80F916E0444502DB5446A81985B2E1
:104F50004D4500DB14E0002000903A7833462946A6
:104F60002046FFF777FE304606EBD07104EB610177
:104F70008CB27F1C38787E2802DC38782028E2DA70
:104F800000BFBDE8F8872DE9FF4F05460E46934662
:104F9000B246F94807880398002844D100243EE02F
:104FA0000BEBCB00F54901EBC01010F804804FF07B
:104FB00000092EE008F0800010B1EF48078003E000
:104FC000EF480088EC49088031462846FBF702FF8D
:104FD0004FF6FF7000EA4808701C86B2E948008866
:104FE000A84203DCE4480780BDE8FF8FA6EB0A0077
:104FF00060280AD15646681C85B2E2480088A8425B
:1050000002DCDD480780EFE706E009F101001FFA46
:1050100080F9B9F1080FCDDB00BF601C84B2B4F594
:10502000906FBDDB3BE0002436E00BEBCB00D349B7
:1050300001EBC01010F804804FF0000926E008F0E2
:10504000800018B131462846FBF7C4FE4FF6FF70CA
:1050500000EA4808701C86B2CA484088A84202DCB0
:10506000C5480780C0E7A6EB0A0060280AD156466B
:10507000681C85B2C3480088A84202DCBE4807808D
:10508000B2E706E009F101001FFA80F9B9F1080F53
:10509000D5DB00BF601C84B2B4F5906FC5DBB648A9
:1050A000078000BFA0E72DE9FF4F07460C4690465A
:1050B000A346B1480688A8F1300000F0FF08039825
:1050C000002842D100253CE0AF4800EB882010F8D2
:1050D00005904FF0000A2EE009F0800010B1A648BC
:1050E000068003E0A6480088A34908802146384688
:1050F000FBF770FE4FF6FF7000EA4909601C84B2AE
:10510000A0480088A04203DC9B480680BDE8FF8FD2
:10511000A4EB0B0080280AD15C46781C87B2994822
:105120000088B84202DC94480680EFE706E00AF106
:1051300001001FFA80FABAF1080FCDDB00BF681C2E
:1051400085B2B5F5806FBFDB39E0002534E08E48CD
:1051500000EB882010F805904FF0000A26E009F0D7
:10516000800018B121463846FBF734FE4FF6FF7039
:1051700000EA4909601C84B282484088A04202DCEF
:105180007D480680C2E7A4EB0B0080280AD15C466C
:10519000781C87B27B480088B84202DC76480680DB
:1051A000B4E706E00AF101001FFA80FABAF1080F2D
:1051B000D5DB00BF681C85B2B5F5806FC7DB6E48D4
:1051C000068000BFA2E72DE9F04F07460C46934644
:1051D000A24669480688BBF1000F40D100253AE09D
:1051E0006A4810F805804FF000092EE008F08000B2
:1051F00010B16148068003E0614800885E4908807C
:1052000021463846FBF7E6FD4FF6FF7000EA4808F6
:10521000601C84B25B480088A04203DC56480680CC
:10522000BDE8F08FA4EB0A0080280AD15446781C10
:1052300087B254480088B84202DC4F480680EFE746
:1052400006E009F101001FFA80F9B9F1080FCDDB82
:1052500000BF681C85B2B5F5806FC1DB37E0002563
:1052600032E04A4810F805804FF0000926E008F0C7
:10527000800018B121463846FBF7ACFD4FF6FF70B1
:1052800000EA4808601C84B23E484088A04202DC24
:1052900039480680C4E7A4EB0A0080280AD15446A6
:1052A000781C87B237480088B84202DC3248068052
:1052B000B6E706E009F101001FFA80F9B9F1080F1D
:1052C000D5DB00BF681C85B2B5F5806FC9DB2A4805
:1052D000068000BFA4E72DE9FF4F07460C46934622
:1052E000A246254806880398002853D100253EE0B1
:1052F0000BEBCB00264901EB801010F805804FF036
:1053000000092EE008F0800010B11B48068003E081
:105310001B4800881849088021463846FBF75AFD8B
:105320004FF6FF7000EA4808601C84B215480088F8
:10533000A04203DC10480680BDE8FF8FA4EB0A0002
:1053400060280AD15446781C87B20E480088B842BB
:1053500002DC09480680EFE706E009F101001FFAC8
:1053600080F9B9F1080FCDDB00BF681C85B2B5F537
:10537000107FBDDB48E0000014000020AAD6000822
:105380001600002058000020AAA60008AACE000897
:10539000EA290108002534E0E34800EB8B2010F8EF
:1053A00005804FF0000926E008F0800018B1214682
:1053B0003846FBF70FFD4FF6FF7000EA4808601C07
:1053C00084B2DA484088A04202DCD9480680B3E7BC
:1053D000A4EB0A0060280AD15446781C87B2D3484F
:1053E0000088B84202DCD2480680A5E706E009F151
:1053F00001001FFA80F9B9F1080FD5DB00BF681C66
:1054000085B2B5F5107FC7DBC948068000BF93E7BA
:105410002DE9F043CBB004460D461746984601AE41
:1054200053A8009001A8009A529902F01BFF002097
:10543000009004F0FF09381987B208EB05001FFA45
:1054400080F812E0BC4203DB4C4605F1800085B2D7
:10545000454500DB0FE03278002329462046FFF760
:1054600022FE04F1400084B2761C30787E2802DCF3
:1054700030782028E6DA00BF4BB0BDE8F0832DE994
:10548000F047CCB004460D4690469946549E02AF74
:1054900056A8019002A8019A559902F0E3FE002057
:1054A000019004F0FF0A08EB04001FFA80F809EBF2
:1054B00005001FFA80F916E0444502DB5446A8199E
:1054C00085B24D4500DB14E0002000903A78334669
:1054D00029462046FFF7BEFB304606EBD07104EBB1
:1054E00061018CB27F1C38787E2802DC3878202855
:1054F000E2DA00BF4CB0BDE8F0872DE9FF4F064669
:105500000D469346AA468A4807880398002844D146
:1055100000243EE00BEBCB00864901EB401010F875
:1055200004804FF000092EE008F0800010B18048A0
:10553000078003E0804800887D490880294630467E
:10554000FBF748FC4FF6FF7000EA4808681C85B27C
:1055500076484088A84203DC75480780BDE8FF8F85
:10556000A5EB0A0030280AD15546701C86B26F4858
:105570000088B04202DC6E480780EFE706E009F1E0
:1055800001001FFA80F9B9F1080FCDDB00BF601CE4
:1055900084B2B4F5907FBDDB3BE0002436E00BEB3A
:1055A000CB00644901EB401010F804804FF0000973
:1055B00026E008F0800018B129463046FBF70AFCC7
:1055C0004FF6FF7000EA4808681C85B257484088CB
:1055D000B04202DC56480780C0E7A5EB0A0030283D
:1055E0000AD15546701C86B250480088B04202DC91
:1055F0004F480780B2E706E009F101001FFA80F981
:10560000B9F1080FD5DB00BF601C84B2B4F5907F00
:10561000C5DB4748078000BFA0E72DE9F04F0546EE
:105620000E469B46B24642480788BBF1000F3FD169
:1056300000243AE0414810F804804FF000092EE0C1
:1056400008F0800010B13A48078003E03A4800882B
:105650003749088031462846FBF7BCFB4FF6FF7000
:1056600000EA4808701C86B230480088A84203DC73
:105670002F480780BDE8F08FA6EB0A0060280AD10A
:105680005646681C85B229480088A84202DC284892
:105690000780EFE706E009F101001FFA80F9B9F190
:1056A000080FCDDB00BF601C84B2802CC2DB37E06A
:1056B000002432E0214810F804804FF0000926E071
:1056C00008F0800018B131462846FBF783FB4FF6FF
:1056D000FF7000EA4808701C86B214484088A8424F
:1056E00002DC13480780C5E7A6EB0A0060280AD150
:1056F0005646681C85B20D480088A84202DC0C485A
:105700000780B7E706E009F101001FFA80F9B9F157
:10571000080FD5DB00BF601C84B2B4F5906FC9DB05
:105720000348078000BFA5E7AAA60008580000208C
:1057300014000020AA1E010816000020EA29010812
:1057400008B50121802001F0EFF94FF48050ADF849
:10575000000010208DF8030003208DF80200694638
:105760000C4800F025FF4FF480510A4800F0CFFFAD
:105770004FF48040ADF8000010208DF8030069461A
:10578000044800F015FF4FF48041024800F0BFFFCD
:1057900008BD0000001C014008B50121802001F077
:1057A000C3F90820ADF8000010208DF80300022096
:1057B0008DF802006946314800F0FAFE08BD10B5C8
:1057C000044614B101202E4908702D4800780028A5
:1057D00037D010212B4800F07EFF78B108212948EE
:1057E00000F079FF50B10421264800F074FF28B181
:1057F0000121254800F06FFF012822D10A2000F086
:105800000CFA00201E49087010211E4800F063FFAA
:1058100008B9012010BD08211A4800F05CFF08B942
:105820000220F7E70421174800F055FF08B90320CC
:10583000F0E70121144800F04EFF01281BD104209D
:10584000E8E710210F4800F046FF012813D1082196
:105850000C4800F040FF01280DD10421094800F058
:105860003AFF012807D10121074800F034FF10B9A1
:105870000120034908700020CCE70000001C014013
:1058800018000020001801400008014000B587B052
:1058900001214FF4017001F047F94FF4004001F08D
:1058A000A7F80220ADF8040000208DF8070001A938
:1058B0003F4800F07DFE3F4801F09EFB0020029033
:1058C0008DF80C008DF80D004FF46020049000203E
:1058D000059001208DF8180002A9364801F0B3FBAD
:1058E0000121344801F0DBFB324801F0FAFB00BF34
:1058F000304801F0FBFB0028FAD12E4801F000FCF3
:1059000000BF2C4801F001FC0028FAD107B000BD0F
:1059100010B50446072301222146264801F02BFC3E
:105920000121244801F0FBFB00BF0221214801F0C6
:1059300067FD0028F9D01F4801F084FC10BD70B548
:10594000054600242846FFF7E3FF0446052000F043
:1059500064F9204670BD2DE9F84F0120FFF7EFFFF5
:10596000804604F074F806464FF06632124B04F09D
:1059700081F8044603F062FF82464FF08B415046A7
:1059800004F08CFA0090009804F05CFA80460B4A10
:105990000B4B04F06FF8064600220A4B04F068F93E
:1059A000044604F025F883465846BDE8F88F000009
:1059B000000801400024014066660A40D218ADA3E9
:1059C000AAAA6040004064401FB50121022001F0F6
:1059D000B8F86320ADF8080041F61F40ADF80400A8
:1059E0000020ADF80A00ADF8060001A95F4801F0FB
:1059F000FFFD012211465D4802F071F91D208DF86E
:105A0000000000208DF8010003208DF80200012025
:105A10008DF80300684600F0FCF90121534802F0BC
:105A200043F91FBD10B50121504802F006FC0028C3
:105A30007ED001214D4802F011FCFFF78CFF4C494C
:105A400008600846006810F1460F06DD0846006849
:105A5000462802DA0120474908704548006810F1DD
:105A6000460F06DA00204349087041480068424961
:105A700008603F480068462808DD4048007828B1A3
:105A800001203C49087000203C4908703A480068F1
:105A900010F1460F06DA36480068462802DD01207C
:105AA000374908703648007800284CD030480168E3
:105AB000344802680068401C324B1860324840F895
:105AC000221018460068022814D12F480068462882
:105AD0000ADD2D484068462806DD01202B49087064
